{
  "contractName": "DutchExchangeProxy",
  "abi": [
    {
      "constant": true,
      "inputs": [],
      "name": "masterCopy",
      "outputs": [
        {
          "name": "",
          "type": "address"
        }
      ],
      "payable": false,
      "stateMutability": "view",
      "type": "function"
    },
    {
      "inputs": [
        {
          "name": "_masterCopy",
          "type": "address"
        }
      ],
      "payable": false,
      "stateMutability": "nonpayable",
      "type": "constructor"
    },
    {
      "payable": true,
      "stateMutability": "payable",
      "type": "fallback"
    }
  ],
  "bytecode": "0x6060604052341561000f57600080fd5b604051602080610169833981016040528080519150819050600160a060020a038116151561003c57600080fd5b60008054600160a060020a03909216600160a060020a03199092169190911790555060fd8061006c6000396000f300606060405260043610603e5763ffffffff7c0100000000000000000000000000000000000000000000000000000000600035041663a619486e8114607c575b6000805473ffffffffffffffffffffffffffffffffffffffff169036908037600080368184600019f43d6000803e8080156077573d6000f35b3d6000fd5b3415608657600080fd5b608c60b5565b60405173ffffffffffffffffffffffffffffffffffffffff909116815260200160405180910390f35b60005473ffffffffffffffffffffffffffffffffffffffff16815600a165627a7a723058208d1e2c54d3a88b58b27503df9c7accfd753830132b4437644ef9026ec22220370029",
  "source": "pragma solidity ^0.4.21;\n\nimport \"@gnosis.pm/util-contracts/contracts/Proxy.sol\";\n\ncontract DutchExchangeProxy is Proxy {\n  function DutchExchangeProxy(address _masterCopy) Proxy (_masterCopy) {\n  }\n}",
  "sourcePath": "@gnosis.pm/dx-contracts/contracts/DutchExchangeProxy.sol",
  "compiler": {
    "name": "solc",
    "version": "0.4.21+commit.dfe3193c.Emscripten.clang"
  },
  "schemaVersion": "2.0.0",
  "updatedAt": "2018-12-10T15:39:58.099Z"
}