{
  "contractName": "OWLAirdrop",
  "abi": [
    {
      "constant": true,
      "inputs": [],
      "name": "endTime",
      "outputs": [
        {
          "name": "",
          "type": "uint256"
        }
      ],
      "payable": false,
      "stateMutability": "view",
      "type": "function"
    },
    {
      "constant": true,
      "inputs": [],
      "name": "tokenOWL",
      "outputs": [
        {
          "name": "",
          "type": "address"
        }
      ],
      "payable": false,
      "stateMutability": "view",
      "type": "function"
    },
    {
      "constant": true,
      "inputs": [
        {
          "name": "",
          "type": "address"
        }
      ],
      "name": "lockedGNO",
      "outputs": [
        {
          "name": "",
          "type": "uint256"
        }
      ],
      "payable": false,
      "stateMutability": "view",
      "type": "function"
    },
    {
      "constant": true,
      "inputs": [],
      "name": "tokenGNO",
      "outputs": [
        {
          "name": "",
          "type": "address"
        }
      ],
      "payable": false,
      "stateMutability": "view",
      "type": "function"
    },
    {
      "inputs": [
        {
          "name": "_tokenOWL",
          "type": "address"
        },
        {
          "name": "_tokenGNO",
          "type": "address"
        },
        {
          "name": "_endTime",
          "type": "uint256"
        }
      ],
      "payable": false,
      "stateMutability": "nonpayable",
      "type": "constructor"
    },
    {
      "constant": false,
      "inputs": [
        {
          "name": "amount",
          "type": "uint256"
        }
      ],
      "name": "lockGNO",
      "outputs": [],
      "payable": false,
      "stateMutability": "nonpayable",
      "type": "function"
    },
    {
      "constant": false,
      "inputs": [],
      "name": "withdrawGNO",
      "outputs": [],
      "payable": false,
      "stateMutability": "nonpayable",
      "type": "function"
    }
  ],
  "bytecode": "0x6060604052341561000f57600080fd5b60405160608061045c833981016040528080519190602001805191906020018051915050428190111561004157600080fd5b60008054600160a060020a03948516600160a060020a03199182161790915560018054939094169216919091179091556003556103d9806100836000396000f30060606040526004361061005e5763ffffffff60e060020a600035041663162d563d81146100635780633197cbb6146100785780633540e96c1461009d57806364748294146100cc578063b6ba600a146100eb578063f0cafe0e14610101575b600080fd5b341561006e57600080fd5b610076610114565b005b341561008357600080fd5b61008b6101cb565b60405190815260200160405180910390f35b34156100a857600080fd5b6100b06101d1565b604051600160a060020a03909116815260200160405180910390f35b34156100d757600080fd5b61008b600160a060020a03600435166101e0565b34156100f657600080fd5b6100766004356101f2565b341561010c57600080fd5b6100b061033d565b600354421180156101a55750600154600160a060020a03338181166000908152600260205260409081902054929093169263a9059cbb92905160e060020a63ffffffff8516028152600160a060020a0390921660048301526024820152604401602060405180830381600087803b151561018d57600080fd5b5af1151561019a57600080fd5b505050604051805190505b15156101b057600080fd5b600160a060020a033316600090815260026020526040812055565b60035481565b600054600160a060020a031681565b60026020526000908152604090205481565b600354421115801561027a5750600154600160a060020a03166323b872dd33308460405160e060020a63ffffffff8616028152600160a060020a0393841660048201529190921660248201526044810191909152606401602060405180830381600087803b151561026257600080fd5b5af1151561026f57600080fd5b505050604051805190505b151561028557600080fd5b600160a060020a0333166000908152600260205260409020546102ae908263ffffffff61034c16565b600160a060020a03338181166000908152600260205260408120939093559154169063f52a41f3906102e784600a63ffffffff61036816565b60405160e060020a63ffffffff8516028152600160a060020a0390921660048301526024820152604401600060405180830381600087803b151561032a57600080fd5b5af1151561033757600080fd5b50505050565b600154600160a060020a031681565b60006103588383610384565b151561036357600080fd5b500190565b6000610374838361038b565b151561037f57600080fd5b500290565b8101101590565b60008115806103a6575082828385028115156103a357fe5b04145b93925050505600a165627a7a72305820f0e199dc9cf48bb4a57211eccbbb7b7f4bf6f2e5f615e95c5f980fd52bbc0a660029",
  "source": "pragma solidity ^0.4.21;\n\nimport \"@gnosis.pm/gno-token/contracts/TokenGNO.sol\";\nimport \"./TokenOWL.sol\";\n\ncontract OWLAirdrop {\n    using Math for *;\n\n    TokenOWL public tokenOWL;\n    TokenGNO public tokenGNO;\n    mapping(address => uint) public lockedGNO;\n    uint public endTime;\n\n    /// @dev Creates and starts the airdrop\n    /// @param _tokenOWL The OWL token contract\n    /// @param _tokenGNO The GNO token contract\n    /// @param _endTime The unix epoch timestamp in seconds of the time airdrop ends\n    function OWLAirdrop(TokenOWL _tokenOWL, TokenGNO _tokenGNO, uint _endTime)\n        public\n    {\n        require(now <= _endTime);\n        tokenOWL = _tokenOWL;\n        tokenGNO = _tokenGNO;\n        endTime = _endTime;\n    }\n\n    /// @dev Locks GNO inside this contract and mints OWL for GNO if endTime is not past\n    /// @param amount Amount of GNO to lock\n    function lockGNO(uint amount)\n        public\n    {\n        require(now <= endTime && tokenGNO.transferFrom(msg.sender, this, amount));\n        lockedGNO[msg.sender] = lockedGNO[msg.sender].add(amount);\n        tokenOWL.mintOWL(msg.sender, amount.mul(10));\n    }\n\n    /// @dev Withdraws locked GNO if endTime is past\n    function withdrawGNO()\n        public\n    {\n        require(now > endTime && tokenGNO.transfer(msg.sender, lockedGNO[msg.sender]));\n        lockedGNO[msg.sender] = 0;\n    }\n}",
  "sourcePath": "@gnosis.pm/owl-token/contracts/OWLAirdrop.sol",
  "compiler": {
    "name": "solc",
    "version": "0.4.21+commit.dfe3193c.Emscripten.clang"
  },
  "schemaVersion": "2.0.0",
  "updatedAt": "2018-12-10T15:39:58.105Z"
}