{
  "contractName": "PriceOracleInterface",
  "abi": [
    {
      "constant": true,
      "inputs": [],
      "name": "emergencyMode",
      "outputs": [
        {
          "name": "",
          "type": "bool"
        }
      ],
      "payable": false,
      "stateMutability": "view",
      "type": "function"
    },
    {
      "constant": true,
      "inputs": [],
      "name": "owner",
      "outputs": [
        {
          "name": "",
          "type": "address"
        }
      ],
      "payable": false,
      "stateMutability": "view",
      "type": "function"
    },
    {
      "constant": true,
      "inputs": [],
      "name": "priceFeedSource",
      "outputs": [
        {
          "name": "",
          "type": "address"
        }
      ],
      "payable": false,
      "stateMutability": "view",
      "type": "function"
    },
    {
      "inputs": [
        {
          "name": "_owner",
          "type": "address"
        },
        {
          "name": "_priceFeedSource",
          "type": "address"
        }
      ],
      "payable": false,
      "stateMutability": "nonpayable",
      "type": "constructor"
    },
    {
      "anonymous": false,
      "inputs": [
        {
          "indexed": false,
          "name": "priceFeedSource",
          "type": "address"
        }
      ],
      "name": "NonValidPriceFeed",
      "type": "event"
    },
    {
      "constant": false,
      "inputs": [
        {
          "name": "_emergencyMode",
          "type": "bool"
        }
      ],
      "name": "raiseEmergency",
      "outputs": [],
      "payable": false,
      "stateMutability": "nonpayable",
      "type": "function"
    },
    {
      "constant": false,
      "inputs": [
        {
          "name": "_owner",
          "type": "address"
        }
      ],
      "name": "updateCurator",
      "outputs": [],
      "payable": false,
      "stateMutability": "nonpayable",
      "type": "function"
    },
    {
      "constant": false,
      "inputs": [],
      "name": "getUSDETHPrice",
      "outputs": [
        {
          "name": "",
          "type": "uint256"
        }
      ],
      "payable": false,
      "stateMutability": "nonpayable",
      "type": "function"
    }
  ],
  "bytecode": "0x6060604052341561000f57600080fd5b6040516040806103e9833981016040528080519190602001805160018054600160a060020a03958616600160a060020a03199182161790915560008054929095169116178355506103829182915061006790396000f3006060604052600436106100775763ffffffff7c01000000000000000000000000000000000000000000000000000000006000350416630905f560811461007c5780630c6a62dd146100a35780638da5cb5b146100c45780639e385fa4146100f3578063a3ca17b21461010b578063c5ace44314610130575b600080fd5b341561008757600080fd5b61008f610143565b604051901515815260200160405180910390f35b34156100ae57600080fd5b6100c2600160a060020a0360043516610164565b005b34156100cf57600080fd5b6100d76101ae565b604051600160a060020a03909116815260200160405180910390f35b34156100fe57600080fd5b6100c260043515156101bd565b341561011657600080fd5b61011e610218565b60405190815260200160405180910390f35b341561013b57600080fd5b6100d7610347565b60015474010000000000000000000000000000000000000000900460ff1681565b60015433600160a060020a0390811691161461017f57600080fd5b6001805473ffffffffffffffffffffffffffffffffffffffff1916600160a060020a0392909216919091179055565b600154600160a060020a031681565b60015433600160a060020a039081169116146101d857600080fd5b60018054911515740100000000000000000000000000000000000000000274ff000000000000000000000000000000000000000019909216919091179055565b600080600080600160149054906101000a900460ff161561023d576102589350610341565b60005460019250600160a060020a03166359e02dd76040518163ffffffff167c01000000000000000000000000000000000000000000000000000000000281526004016040805180830381600087803b151561029857600080fd5b5af115156102a557600080fd5b50505060405180519060200180519194509092505081151561030b576000547f364c0d3d8c056dff125868f781751ed53d48fb1b927b60ab972436741b61e3c990600160a060020a0316604051600160a060020a03909116815260200160405180910390a15b50670de0b6b3a764000082048015156103275760019350610341565b620f424081111561033d57620f42409350610341565b8093505b50505090565b600054600160a060020a0316815600a165627a7a723058203faf1ab2a1750e5a3e1cdcbde60c01e4718a4cc034340c6c5f80627e785e40b80029",
  "source": "pragma solidity ^0.4.21;\n\n/*\nThis contract is the interface between the MakerDAO priceFeed and our DX platform.\n*/\n\nimport \"../Oracle/PriceFeed.sol\";\nimport \"../Oracle/Medianizer.sol\";\n\ncontract PriceOracleInterface {\n\n    address public priceFeedSource;\n    address public owner;\n    bool public emergencyMode;\n\n    event NonValidPriceFeed(address priceFeedSource);\n\n    // Modifiers\n    modifier onlyOwner() {\n        require(msg.sender == owner);\n        _;\n    }\n\n    /// @dev constructor of the contract\n    /// @param _priceFeedSource address of price Feed Source -> should be maker feeds Medianizer contract\n    function PriceOracleInterface(\n        address _owner,\n        address _priceFeedSource\n    )\n        public\n    {\n        owner = _owner;\n        priceFeedSource = _priceFeedSource;\n    }\n    /// @dev gives the owner the possibility to put the Interface into an emergencyMode, which will \n    /// output always a price of 600 USD. This gives everyone time to set up a new pricefeed.\n    function raiseEmergency(bool _emergencyMode)\n        public\n        onlyOwner()\n    {\n        emergencyMode = _emergencyMode;\n    }\n\n    /// @dev updates the priceFeedSource\n    /// @param _owner address of owner\n    function updateCurator(\n        address _owner\n    )\n        public\n        onlyOwner()\n    {\n        owner = _owner;\n    }\n\n    /// @dev returns the USDETH price, ie gets the USD price from Maker feed with 18 digits, but last 18 digits are cut off\n    function getUSDETHPrice() \n        public\n        returns (uint256)\n    {\n        // if the contract is in the emergencyMode, because there is an issue with the oracle, we will simply return a price of 600 USD\n        if(emergencyMode){\n            return 600;\n        }\n\n        bytes32 price;\n        bool valid=true;\n        (price, valid) = Medianizer(priceFeedSource).peek();\n        if (!valid) {\n            NonValidPriceFeed(priceFeedSource);\n        }\n        // ensuring that there is no underflow or overflow possible,\n        // even if the price is compromised\n        uint priceUint = uint256(price)/(1 ether);\n        if (priceUint == 0) return 1;\n        if (priceUint > 1000000) return 1000000; \n        return priceUint;\n    }  \n}\n",
  "sourcePath": "@gnosis.pm/dx-contracts/contracts/Oracle/PriceOracleInterface.sol",
  "compiler": {
    "name": "solc",
    "version": "0.4.21+commit.dfe3193c.Emscripten.clang"
  },
  "schemaVersion": "2.0.0",
  "updatedAt": "2018-12-10T17:54:35.391Z"
}