{
  "contractName": "TokenOWLProxy",
  "abi": [
    {
      "constant": true,
      "inputs": [],
      "name": "creator",
      "outputs": [
        {
          "name": "",
          "type": "address"
        }
      ],
      "payable": false,
      "stateMutability": "view",
      "type": "function"
    },
    {
      "constant": true,
      "inputs": [],
      "name": "name",
      "outputs": [
        {
          "name": "",
          "type": "string"
        }
      ],
      "payable": false,
      "stateMutability": "view",
      "type": "function"
    },
    {
      "constant": true,
      "inputs": [],
      "name": "minter",
      "outputs": [
        {
          "name": "",
          "type": "address"
        }
      ],
      "payable": false,
      "stateMutability": "view",
      "type": "function"
    },
    {
      "constant": false,
      "inputs": [
        {
          "name": "spender",
          "type": "address"
        },
        {
          "name": "value",
          "type": "uint256"
        }
      ],
      "name": "approve",
      "outputs": [
        {
          "name": "",
          "type": "bool"
        }
      ],
      "payable": false,
      "stateMutability": "nonpayable",
      "type": "function"
    },
    {
      "constant": true,
      "inputs": [],
      "name": "totalSupply",
      "outputs": [
        {
          "name": "",
          "type": "uint256"
        }
      ],
      "payable": false,
      "stateMutability": "view",
      "type": "function"
    },
    {
      "constant": false,
      "inputs": [
        {
          "name": "from",
          "type": "address"
        },
        {
          "name": "to",
          "type": "address"
        },
        {
          "name": "value",
          "type": "uint256"
        }
      ],
      "name": "transferFrom",
      "outputs": [
        {
          "name": "",
          "type": "bool"
        }
      ],
      "payable": false,
      "stateMutability": "nonpayable",
      "type": "function"
    },
    {
      "constant": true,
      "inputs": [],
      "name": "decimals",
      "outputs": [
        {
          "name": "",
          "type": "uint8"
        }
      ],
      "payable": false,
      "stateMutability": "view",
      "type": "function"
    },
    {
      "constant": true,
      "inputs": [
        {
          "name": "owner",
          "type": "address"
        }
      ],
      "name": "balanceOf",
      "outputs": [
        {
          "name": "",
          "type": "uint256"
        }
      ],
      "payable": false,
      "stateMutability": "view",
      "type": "function"
    },
    {
      "constant": true,
      "inputs": [],
      "name": "symbol",
      "outputs": [
        {
          "name": "",
          "type": "string"
        }
      ],
      "payable": false,
      "stateMutability": "view",
      "type": "function"
    },
    {
      "constant": true,
      "inputs": [],
      "name": "masterCopy",
      "outputs": [
        {
          "name": "",
          "type": "address"
        }
      ],
      "payable": false,
      "stateMutability": "view",
      "type": "function"
    },
    {
      "constant": false,
      "inputs": [
        {
          "name": "to",
          "type": "address"
        },
        {
          "name": "value",
          "type": "uint256"
        }
      ],
      "name": "transfer",
      "outputs": [
        {
          "name": "",
          "type": "bool"
        }
      ],
      "payable": false,
      "stateMutability": "nonpayable",
      "type": "function"
    },
    {
      "constant": true,
      "inputs": [
        {
          "name": "owner",
          "type": "address"
        },
        {
          "name": "spender",
          "type": "address"
        }
      ],
      "name": "allowance",
      "outputs": [
        {
          "name": "",
          "type": "uint256"
        }
      ],
      "payable": false,
      "stateMutability": "view",
      "type": "function"
    },
    {
      "inputs": [
        {
          "name": "proxied",
          "type": "address"
        }
      ],
      "payable": false,
      "stateMutability": "nonpayable",
      "type": "constructor"
    },
    {
      "payable": true,
      "stateMutability": "payable",
      "type": "fallback"
    },
    {
      "anonymous": false,
      "inputs": [
        {
          "indexed": true,
          "name": "from",
          "type": "address"
        },
        {
          "indexed": true,
          "name": "to",
          "type": "address"
        },
        {
          "indexed": false,
          "name": "value",
          "type": "uint256"
        }
      ],
      "name": "Transfer",
      "type": "event"
    },
    {
      "anonymous": false,
      "inputs": [
        {
          "indexed": true,
          "name": "owner",
          "type": "address"
        },
        {
          "indexed": true,
          "name": "spender",
          "type": "address"
        },
        {
          "indexed": false,
          "name": "value",
          "type": "uint256"
        }
      ],
      "name": "Approval",
      "type": "event"
    }
  ],
  "bytecode": "0x6060604052341561000f57600080fd5b604051602080610708833981016040528080519150819050600160a060020a038116151561003c57600080fd5b60008054600160a060020a03928316600160a060020a0319918216179091556006805433909316929091169190911790555061068b8061007d6000396000f3006060604052600436106100b95763ffffffff7c010000000000000000000000000000000000000000000000000000000060003504166302d05d3f81146100eb57806306fdde031461011a57806307546172146101a4578063095ea7b3146101b757806318160ddd146101ed57806323b872dd14610212578063313ce5671461023a57806370a082311461026357806395d89b4114610282578063a619486e14610295578063a9059cbb146102a8578063dd62ed3e146102ca575b60008054600160a060020a03169036908037600080368184600019f43d6000803e8080156100e6573d6000f35b3d6000fd5b34156100f657600080fd5b6100fe6102ef565b604051600160a060020a03909116815260200160405180910390f35b341561012557600080fd5b61012d6102fe565b60405160208082528190810183818151815260200191508051906020019080838360005b83811015610169578082015183820152602001610151565b50505050905090810190601f1680156101965780820380516001836020036101000a031916815260200191505b509250505060405180910390f35b34156101af57600080fd5b6100fe610335565b34156101c257600080fd5b6101d9600160a060020a0360043516602435610344565b604051901515815260200160405180910390f35b34156101f857600080fd5b6102006103b1565b60405190815260200160405180910390f35b341561021d57600080fd5b6101d9600160a060020a03600435811690602435166044356103b7565b341561024557600080fd5b61024d6104eb565b60405160ff909116815260200160405180910390f35b341561026e57600080fd5b610200600160a060020a03600435166104f0565b341561028d57600080fd5b61012d61050b565b34156102a057600080fd5b6100fe610542565b34156102b357600080fd5b6101d9600160a060020a0360043516602435610551565b34156102d557600080fd5b610200600160a060020a0360043581169060243516610627565b600654600160a060020a031681565b60408051908101604052600981527f4f574c20546f6b656e0000000000000000000000000000000000000000000000602082015281565b600754600160a060020a031681565b600160a060020a03338116600081815260026020908152604080832094871680845294909152808220859055909291907f8c5be1e5ebec7d5bd14f71427d1e84f3dd0314c0f7b2291e5b200ac8c7c3b9259085905190815260200160405180910390a35060015b92915050565b60035490565b600160a060020a0383166000908152600160205260408120546103e0908363ffffffff61065216565b15806104205750600160a060020a038085166000908152600260209081526040808320339094168352929052205461041e908363ffffffff61065216565b155b806104515750600160a060020a03831660009081526001602052604090205461044f908363ffffffff61065816565b155b1561045e575060006104e4565b600160a060020a0380851660008181526001602081815260408084208054899003905560028252808420338716855282528084208054899003905594881680845291905290839020805486019055917fddf252ad1be2c89b69c2b068fc378daa952ba7f163c4a11628f55a4df523b3ef9085905190815260200160405180910390a35060015b9392505050565b601281565b600160a060020a031660009081526001602052604090205490565b60408051908101604052600381527f4f574c0000000000000000000000000000000000000000000000000000000000602082015281565b600054600160a060020a031681565b600160a060020a03331660009081526001602052604081205461057a908363ffffffff61065216565b15806105ac5750600160a060020a0383166000908152600160205260409020546105aa908363ffffffff61065816565b155b156105b9575060006103ab565b600160a060020a033381166000818152600160205260408082208054879003905592861680825290839020805486019055917fddf252ad1be2c89b69c2b068fc378daa952ba7f163c4a11628f55a4df523b3ef9085905190815260200160405180910390a350600192915050565b600160a060020a03918216600090815260026020908152604080832093909416825291909152205490565b90101590565b81011015905600a165627a7a72305820a75d107bdcce1f6ee97d20232c6e9d004a33e6169edd8859c426530f65ae62e40029",
  "source": "pragma solidity ^0.4.21;\n\nimport \"@gnosis.pm/util-contracts/contracts/StandardToken.sol\";\nimport \"@gnosis.pm/util-contracts/contracts/Proxy.sol\";\n\ncontract TokenOWLProxy is Proxy, StandardToken {\n    using Math for *;\n\n    string public constant name = \"OWL Token\";\n    string public constant symbol = \"OWL\";\n    uint8 public constant decimals = 18;\n\n    struct masterCopyCountdownType {\n        address masterCopy;\n        uint timeWhenAvailable;\n    }\n\n    masterCopyCountdownType masterCopyCountdown;\n\n    address public creator;\n    address public minter;\n\n    /// @dev Constructor of the contract OWL, which distributes tokens\n    function TokenOWLProxy(address proxied)\n        Proxy(proxied)\n        public\n    {\n        creator = msg.sender;\n    }\n}",
  "sourcePath": "@gnosis.pm/owl-token/contracts/TokenOWLProxy.sol",
  "compiler": {
    "name": "solc",
    "version": "0.4.21+commit.dfe3193c.Emscripten.clang"
  },
  "schemaVersion": "2.0.0",
  "updatedAt": "2018-12-10T17:54:35.386Z"
}