{
  "contractName": "TokenOWL",
  "abi": [
    {
      "constant": true,
      "inputs": [],
      "name": "creator",
      "outputs": [
        {
          "name": "",
          "type": "address"
        }
      ],
      "payable": false,
      "stateMutability": "view",
      "type": "function"
    },
    {
      "constant": true,
      "inputs": [],
      "name": "name",
      "outputs": [
        {
          "name": "",
          "type": "string"
        }
      ],
      "payable": false,
      "stateMutability": "view",
      "type": "function"
    },
    {
      "constant": true,
      "inputs": [],
      "name": "minter",
      "outputs": [
        {
          "name": "",
          "type": "address"
        }
      ],
      "payable": false,
      "stateMutability": "view",
      "type": "function"
    },
    {
      "constant": false,
      "inputs": [
        {
          "name": "spender",
          "type": "address"
        },
        {
          "name": "value",
          "type": "uint256"
        }
      ],
      "name": "approve",
      "outputs": [
        {
          "name": "",
          "type": "bool"
        }
      ],
      "payable": false,
      "stateMutability": "nonpayable",
      "type": "function"
    },
    {
      "constant": true,
      "inputs": [],
      "name": "totalSupply",
      "outputs": [
        {
          "name": "",
          "type": "uint256"
        }
      ],
      "payable": false,
      "stateMutability": "view",
      "type": "function"
    },
    {
      "constant": false,
      "inputs": [
        {
          "name": "from",
          "type": "address"
        },
        {
          "name": "to",
          "type": "address"
        },
        {
          "name": "value",
          "type": "uint256"
        }
      ],
      "name": "transferFrom",
      "outputs": [
        {
          "name": "",
          "type": "bool"
        }
      ],
      "payable": false,
      "stateMutability": "nonpayable",
      "type": "function"
    },
    {
      "constant": true,
      "inputs": [],
      "name": "decimals",
      "outputs": [
        {
          "name": "",
          "type": "uint8"
        }
      ],
      "payable": false,
      "stateMutability": "view",
      "type": "function"
    },
    {
      "constant": true,
      "inputs": [
        {
          "name": "owner",
          "type": "address"
        }
      ],
      "name": "balanceOf",
      "outputs": [
        {
          "name": "",
          "type": "uint256"
        }
      ],
      "payable": false,
      "stateMutability": "view",
      "type": "function"
    },
    {
      "constant": true,
      "inputs": [],
      "name": "symbol",
      "outputs": [
        {
          "name": "",
          "type": "string"
        }
      ],
      "payable": false,
      "stateMutability": "view",
      "type": "function"
    },
    {
      "constant": true,
      "inputs": [],
      "name": "masterCopy",
      "outputs": [
        {
          "name": "",
          "type": "address"
        }
      ],
      "payable": false,
      "stateMutability": "view",
      "type": "function"
    },
    {
      "constant": false,
      "inputs": [
        {
          "name": "to",
          "type": "address"
        },
        {
          "name": "value",
          "type": "uint256"
        }
      ],
      "name": "transfer",
      "outputs": [
        {
          "name": "",
          "type": "bool"
        }
      ],
      "payable": false,
      "stateMutability": "nonpayable",
      "type": "function"
    },
    {
      "constant": true,
      "inputs": [
        {
          "name": "owner",
          "type": "address"
        },
        {
          "name": "spender",
          "type": "address"
        }
      ],
      "name": "allowance",
      "outputs": [
        {
          "name": "",
          "type": "uint256"
        }
      ],
      "payable": false,
      "stateMutability": "view",
      "type": "function"
    },
    {
      "anonymous": false,
      "inputs": [
        {
          "indexed": true,
          "name": "to",
          "type": "address"
        },
        {
          "indexed": false,
          "name": "amount",
          "type": "uint256"
        }
      ],
      "name": "Minted",
      "type": "event"
    },
    {
      "anonymous": false,
      "inputs": [
        {
          "indexed": true,
          "name": "from",
          "type": "address"
        },
        {
          "indexed": true,
          "name": "user",
          "type": "address"
        },
        {
          "indexed": false,
          "name": "amount",
          "type": "uint256"
        }
      ],
      "name": "Burnt",
      "type": "event"
    },
    {
      "anonymous": false,
      "inputs": [
        {
          "indexed": true,
          "name": "from",
          "type": "address"
        },
        {
          "indexed": true,
          "name": "to",
          "type": "address"
        },
        {
          "indexed": false,
          "name": "value",
          "type": "uint256"
        }
      ],
      "name": "Transfer",
      "type": "event"
    },
    {
      "anonymous": false,
      "inputs": [
        {
          "indexed": true,
          "name": "owner",
          "type": "address"
        },
        {
          "indexed": true,
          "name": "spender",
          "type": "address"
        },
        {
          "indexed": false,
          "name": "value",
          "type": "uint256"
        }
      ],
      "name": "Approval",
      "type": "event"
    },
    {
      "constant": false,
      "inputs": [
        {
          "name": "_masterCopy",
          "type": "address"
        }
      ],
      "name": "startMasterCopyCountdown",
      "outputs": [],
      "payable": false,
      "stateMutability": "nonpayable",
      "type": "function"
    },
    {
      "constant": false,
      "inputs": [],
      "name": "updateMasterCopy",
      "outputs": [],
      "payable": false,
      "stateMutability": "nonpayable",
      "type": "function"
    },
    {
      "constant": true,
      "inputs": [],
      "name": "getMasterCopy",
      "outputs": [
        {
          "name": "",
          "type": "address"
        }
      ],
      "payable": false,
      "stateMutability": "view",
      "type": "function"
    },
    {
      "constant": false,
      "inputs": [
        {
          "name": "newMinter",
          "type": "address"
        }
      ],
      "name": "setMinter",
      "outputs": [],
      "payable": false,
      "stateMutability": "nonpayable",
      "type": "function"
    },
    {
      "constant": false,
      "inputs": [
        {
          "name": "newOwner",
          "type": "address"
        }
      ],
      "name": "setNewOwner",
      "outputs": [],
      "payable": false,
      "stateMutability": "nonpayable",
      "type": "function"
    },
    {
      "constant": false,
      "inputs": [
        {
          "name": "to",
          "type": "address"
        },
        {
          "name": "amount",
          "type": "uint256"
        }
      ],
      "name": "mintOWL",
      "outputs": [],
      "payable": false,
      "stateMutability": "nonpayable",
      "type": "function"
    },
    {
      "constant": false,
      "inputs": [
        {
          "name": "user",
          "type": "address"
        },
        {
          "name": "amount",
          "type": "uint256"
        }
      ],
      "name": "burnOWL",
      "outputs": [],
      "payable": false,
      "stateMutability": "nonpayable",
      "type": "function"
    }
  ],
  "bytecode": "0x6060604052341561000f57600080fd5b610ae88061001e6000396000f3006060604052600436106101065763ffffffff7c010000000000000000000000000000000000000000000000000000000060003504166302d05d3f811461010b57806304e80e901461013a57806306fdde031461014d57806307546172146101d7578063095ea7b3146101ea57806318160ddd1461022057806323b872dd146102455780632cef4dac1461026d578063313ce567146102825780634417f4db146102ab57806370a08231146102cd57806395d89b41146102ec578063a619486e146102ff578063a9059cbb14610312578063dd62ed3e14610334578063f52a41f314610359578063f5a1f5b41461037b578063f625ee281461039a578063fca3b5aa146103b9575b600080fd5b341561011657600080fd5b61011e6103d8565b604051600160a060020a03909116815260200160405180910390f35b341561014557600080fd5b61011e6103e7565b341561015857600080fd5b6101606103f6565b60405160208082528190810183818151815260200191508051906020019080838360005b8381101561019c578082015183820152602001610184565b50505050905090810190601f1680156101c95780820380516001836020036101000a031916815260200191505b509250505060405180910390f35b34156101e257600080fd5b61011e61042d565b34156101f557600080fd5b61020c600160a060020a036004351660243561043c565b604051901515815260200160405180910390f35b341561022b57600080fd5b6102336104a9565b60405190815260200160405180910390f35b341561025057600080fd5b61020c600160a060020a03600435811690602435166044356104af565b341561027857600080fd5b6102806105e3565b005b341561028d57600080fd5b610295610655565b60405160ff909116815260200160405180910390f35b34156102b657600080fd5b610280600160a060020a036004351660243561065a565b34156102d857600080fd5b610233600160a060020a036004351661074c565b34156102f757600080fd5b610160610767565b341561030a57600080fd5b61011e61079e565b341561031d57600080fd5b61020c600160a060020a03600435166024356107ad565b341561033f57600080fd5b610233600160a060020a0360043581169060243516610883565b341561036457600080fd5b610280600160a060020a03600435166024356108ae565b341561038657600080fd5b610280600160a060020a036004351661097a565b34156103a557600080fd5b610280600160a060020a03600435166109c4565b34156103c457600080fd5b610280600160a060020a0360043516610a2c565b600654600160a060020a031681565b600054600160a060020a031690565b60408051908101604052600981527f4f574c20546f6b656e0000000000000000000000000000000000000000000000602082015281565b600754600160a060020a031681565b600160a060020a03338116600081815260026020908152604080832094871680845294909152808220859055909291907f8c5be1e5ebec7d5bd14f71427d1e84f3dd0314c0f7b2291e5b200ac8c7c3b9259085905190815260200160405180910390a35060015b92915050565b60035490565b600160a060020a0383166000908152600160205260408120546104d8908363ffffffff610a7616565b15806105185750600160a060020a0380851660009081526002602090815260408083203390941683529290522054610516908363ffffffff610a7616565b155b806105495750600160a060020a038316600090815260016020526040902054610547908363ffffffff610a7c16565b155b15610556575060006105dc565b600160a060020a0380851660008181526001602081815260408084208054899003905560028252808420338716855282528084208054899003905594881680845291905290839020805486019055917fddf252ad1be2c89b69c2b068fc378daa952ba7f163c4a11628f55a4df523b3ef9085905190815260200160405180910390a35060015b9392505050565b60065433600160a060020a039081169116146105fe57600080fd5b600454600160a060020a0316151561061557600080fd5b60055442101561062457600080fd5b6004546000805473ffffffffffffffffffffffffffffffffffffffff1916600160a060020a03909216919091179055565b601281565b600160a060020a0380831660009081526002602090815260408083203390941683529290522054610691908263ffffffff610a8316565b600160a060020a0380841660008181526002602090815260408083203390951683529381528382209490945590815260019092529020546106d8908263ffffffff610a8316565b600160a060020a038316600090815260016020526040902055600354610704908263ffffffff610a8316565b600355600160a060020a038083169033167fe8a89cc6e5096f9d9f43de82c077c1f4cfe707c0e0c2032176c68813b9ae6a5c8360405190815260200160405180910390a35050565b600160a060020a031660009081526001602052604090205490565b60408051908101604052600381527f4f574c0000000000000000000000000000000000000000000000000000000000602082015281565b600054600160a060020a031681565b600160a060020a0333166000908152600160205260408120546107d6908363ffffffff610a7616565b15806108085750600160a060020a038316600090815260016020526040902054610806908363ffffffff610a7c16565b155b15610815575060006104a3565b600160a060020a033381166000818152600160205260408082208054879003905592861680825290839020805486019055917fddf252ad1be2c89b69c2b068fc378daa952ba7f163c4a11628f55a4df523b3ef9085905190815260200160405180910390a350600192915050565b600160a060020a03918216600090815260026020908152604080832093909416825291909152205490565b600754600160a060020a0316158015906108d6575060075433600160a060020a039081169116145b15156108e157600080fd5b600160a060020a03821660009081526001602052604090205461090a908263ffffffff610aa016565b600160a060020a038316600090815260016020526040902055600354610936908263ffffffff610aa016565b600355600160a060020a0382167f30385c845b448a36257a6a1716e6ad2e1bc2cbe333cde1e69fe849ad6511adfe8260405190815260200160405180910390a25050565b60065433600160a060020a0390811691161461099557600080fd5b6006805473ffffffffffffffffffffffffffffffffffffffff1916600160a060020a0392909216919091179055565b60065433600160a060020a039081169116146109df57600080fd5b600160a060020a03811615156109f457600080fd5b6004805473ffffffffffffffffffffffffffffffffffffffff1916600160a060020a03929092169190911790554262278d0001600555565b60065433600160a060020a03908116911614610a4757600080fd5b6007805473ffffffffffffffffffffffffffffffffffffffff1916600160a060020a0392909216919091179055565b90101590565b8101101590565b6000610a8f8383610a76565b1515610a9a57600080fd5b50900390565b6000610aac8383610a7c565b1515610ab757600080fd5b5001905600a165627a7a723058204d13281e839cf168dfd4105b0636170365bc72ab575779cda3675b90cf79beb70029",
  "source": "pragma solidity ^0.4.21;\n\nimport \"@gnosis.pm/util-contracts/contracts/Math.sol\";\nimport \"@gnosis.pm/util-contracts/contracts/StandardToken.sol\";\nimport \"@gnosis.pm/util-contracts/contracts/Proxy.sol\";\n\ncontract TokenOWL is Proxied, StandardToken {\n    using Math for *;\n\n    string public constant name = \"OWL Token\";\n    string public constant symbol = \"OWL\";\n    uint8 public constant decimals = 18;\n\n    struct masterCopyCountdownType {\n        address masterCopy;\n        uint timeWhenAvailable;\n    }\n\n    masterCopyCountdownType masterCopyCountdown;\n\n    address public creator;\n    address public minter;\n\n    event Minted(address indexed to, uint256 amount);\n    event Burnt(address indexed from, address indexed user, uint256 amount);\n\n    modifier onlyCreator() {\n        // R1\n        require(msg.sender == creator);\n        _;\n    }\n    /// @dev trickers the update process via the proxyMaster for a new address _masterCopy \n    /// updating is only possible after 30 days\n    function startMasterCopyCountdown (\n        address _masterCopy\n     )\n        public\n        onlyCreator()\n    {\n        require(address(_masterCopy) != 0);\n\n        // Update masterCopyCountdown\n        masterCopyCountdown.masterCopy = _masterCopy;\n        masterCopyCountdown.timeWhenAvailable = now + 30 days;\n    }\n\n     /// @dev executes the update process via the proxyMaster for a new address _masterCopy\n    function updateMasterCopy()\n        public\n        onlyCreator()\n    {   \n        require(address(masterCopyCountdown.masterCopy) != 0);\n        require(now >= masterCopyCountdown.timeWhenAvailable);\n\n        // Update masterCopy\n        masterCopy = masterCopyCountdown.masterCopy;\n    }\n\n    function getMasterCopy()\n        public\n        view\n        returns (address)\n    {\n        return masterCopy;\n    }\n\n    /// @dev Set minter. Only the creator of this contract can call this.\n    /// @param newMinter The new address authorized to mint this token\n    function setMinter(address newMinter)\n        public\n        onlyCreator()\n    {\n        minter = newMinter;\n    }\n\n\n    /// @dev change owner/creator of the contract. Only the creator/owner of this contract can call this.\n    /// @param newOwner The new address, which should become the owner\n    function setNewOwner(address newOwner)\n        public\n        onlyCreator()\n    {\n        creator = newOwner;\n    }\n\n    /// @dev Mints OWL.\n    /// @param to Address to which the minted token will be given\n    /// @param amount Amount of OWL to be minted\n    function mintOWL(address to, uint amount)\n        public\n    {\n        require(minter != 0 && msg.sender == minter);\n        balances[to] = balances[to].add(amount);\n        totalTokens = totalTokens.add(amount);\n        emit Minted(to, amount);\n    }\n\n    /// @dev Burns OWL.\n    /// @param user Address of OWL owner\n    /// @param amount Amount of OWL to be burnt\n    function burnOWL(address user, uint amount)\n        public\n    {\n        allowances[user][msg.sender] = allowances[user][msg.sender].sub(amount);\n        balances[user] = balances[user].sub(amount);\n        totalTokens = totalTokens.sub(amount);\n        emit Burnt(msg.sender, user, amount);\n    }\n}\n",
  "sourcePath": "@gnosis.pm/owl-token/contracts/TokenOWL.sol",
  "compiler": {
    "name": "solc",
    "version": "0.4.21+commit.dfe3193c.Emscripten.clang"
  },
  "schemaVersion": "2.0.0",
  "updatedAt": "2018-12-10T17:54:35.398Z"
}